{
  "contractName": "VotingContract",
  "abi": [
    {
      "anonymous": false,
      "inputs": [
        {
          "indexed": true,
          "internalType": "address",
          "name": "userAddress",
          "type": "address"
        },
        {
          "indexed": false,
          "internalType": "uint256",
          "name": "index",
          "type": "uint256"
        }
      ],
      "name": "LogNewUser",
      "type": "event"
    },
    {
      "inputs": [
        {
          "internalType": "string",
          "name": "newTitle",
          "type": "string"
        }
      ],
      "name": "setTitle",
      "outputs": [],
      "stateMutability": "nonpayable",
      "type": "function"
    },
    {
      "inputs": [],
      "name": "getTitle",
      "outputs": [
        {
          "internalType": "string",
          "name": "",
          "type": "string"
        }
      ],
      "stateMutability": "view",
      "type": "function"
    },
    {
      "inputs": [],
      "name": "incYesCounter",
      "outputs": [],
      "stateMutability": "nonpayable",
      "type": "function"
    },
    {
      "inputs": [],
      "name": "incNoCounter",
      "outputs": [],
      "stateMutability": "nonpayable",
      "type": "function"
    },
    {
      "inputs": [],
      "name": "getTotalYes",
      "outputs": [
        {
          "internalType": "int256",
          "name": "",
          "type": "int256"
        }
      ],
      "stateMutability": "view",
      "type": "function"
    },
    {
      "inputs": [],
      "name": "getTotalNo",
      "outputs": [
        {
          "internalType": "int256",
          "name": "",
          "type": "int256"
        }
      ],
      "stateMutability": "view",
      "type": "function"
    },
    {
      "inputs": [],
      "name": "SumTotalVote",
      "outputs": [],
      "stateMutability": "nonpayable",
      "type": "function"
    },
    {
      "inputs": [],
      "name": "GetTotalVote",
      "outputs": [
        {
          "internalType": "int256",
          "name": "",
          "type": "int256"
        }
      ],
      "stateMutability": "view",
      "type": "function"
    },
    {
      "inputs": [],
      "name": "GetMaxVote",
      "outputs": [
        {
          "internalType": "int256",
          "name": "",
          "type": "int256"
        }
      ],
      "stateMutability": "view",
      "type": "function"
    },
    {
      "inputs": [
        {
          "internalType": "address",
          "name": "userAddress",
          "type": "address"
        }
      ],
      "name": "isUser",
      "outputs": [
        {
          "internalType": "bool",
          "name": "isIndeed",
          "type": "bool"
        }
      ],
      "stateMutability": "view",
      "type": "function"
    },
    {
      "inputs": [
        {
          "internalType": "address",
          "name": "userAddress",
          "type": "address"
        }
      ],
      "name": "insertUser",
      "outputs": [],
      "stateMutability": "nonpayable",
      "type": "function"
    },
    {
      "inputs": [],
      "name": "getUserCount",
      "outputs": [
        {
          "internalType": "uint256",
          "name": "count",
          "type": "uint256"
        }
      ],
      "stateMutability": "view",
      "type": "function"
    }
  ],
  "bytecode": "0x60806040526000805560006001556000600255600160035534801561002357600080fd5b50610ada806100336000396000f3fe608060405234801561001057600080fd5b50600436106100b45760003560e01c806372910be01161007157806372910be0146101435780637c4705dc1461015f57806384ad548e1461017d578063b5cb15f71461019b578063d94eae22146101b9578063ff3c1a8f146101d5576100b4565b8063116e757c146100b957806318714114146100d75780631e18a566146100e15780634209fff1146100ff5780635184d8711461012f57806369b1d0e114610139575b600080fd5b6100c16101f3565b6040516100ce91906105ad565b60405180910390f35b6100df6101fd565b005b6100e9610218565b6040516100f691906105ad565b60405180910390f35b6101196004803603810190610114919061063a565b610221565b6040516101269190610682565b60405180910390f35b6101376102fe565b005b610141610316565b005b61015d600480360381019061015891906107e3565b610331565b005b61016761034b565b60405161017491906105ad565b60405180910390f35b61018561036c565b60405161019291906105ad565b60405180910390f35b6101a3610376565b6040516101b09190610845565b60405180910390f35b6101d360048036038101906101ce919061063a565b610383565b005b6101dd61045f565b6040516101ea91906108e8565b60405180910390f35b6000600254905090565b600160008082825461020f9190610939565b92505081905550565b60008054905090565b6000806006805490500361023857600090506102f9565b8173ffffffffffffffffffffffffffffffffffffffff166006600560008573ffffffffffffffffffffffffffffffffffffffff1673ffffffffffffffffffffffffffffffffffffffff16815260200190815260200160002060000154815481106102a5576102a46109cd565b5b9060005260206000200160009054906101000a900473ffffffffffffffffffffffffffffffffffffffff1673ffffffffffffffffffffffffffffffffffffffff16036102f457600190506102f9565b600090505b919050565b60015460005461030e9190610939565b600281905550565b60018060008282546103289190610939565b92505081905550565b80600490805190602001906103479291906104f1565b5050565b60006001546000541315610363576000549050610369565b60015490505b90565b6000600154905090565b6000600680549050905090565b6000151561039082610221565b15150361045c57600354600560008373ffffffffffffffffffffffffffffffffffffffff1673ffffffffffffffffffffffffffffffffffffffff16815260200190815260200160002060000181905550600360008154809291906103f3906109fc565b91905055506006819080600181540180825580915050600190039060005260206000200160009091909190916101000a81548173ffffffffffffffffffffffffffffffffffffffff021916908373ffffffffffffffffffffffffffffffffffffffff1602179055505b50565b60606004805461046e90610a73565b80601f016020809104026020016040519081016040528092919081815260200182805461049a90610a73565b80156104e75780601f106104bc576101008083540402835291602001916104e7565b820191906000526020600020905b8154815290600101906020018083116104ca57829003601f168201915b5050505050905090565b8280546104fd90610a73565b90600052602060002090601f01602090048101928261051f5760008555610566565b82601f1061053857805160ff1916838001178555610566565b82800160010185558215610566579182015b8281111561056557825182559160200191906001019061054a565b5b5090506105739190610577565b5090565b5b80821115610590576000816000905550600101610578565b5090565b6000819050919050565b6105a781610594565b82525050565b60006020820190506105c2600083018461059e565b92915050565b6000604051905090565b600080fd5b600080fd5b600073ffffffffffffffffffffffffffffffffffffffff82169050919050565b6000610607826105dc565b9050919050565b610617816105fc565b811461062257600080fd5b50565b6000813590506106348161060e565b92915050565b6000602082840312156106505761064f6105d2565b5b600061065e84828501610625565b91505092915050565b60008115159050919050565b61067c81610667565b82525050565b60006020820190506106976000830184610673565b92915050565b600080fd5b600080fd5b6000601f19601f8301169050919050565b7f4e487b7100000000000000000000000000000000000000000000000000000000600052604160045260246000fd5b6106f0826106a7565b810181811067ffffffffffffffff8211171561070f5761070e6106b8565b5b80604052505050565b60006107226105c8565b905061072e82826106e7565b919050565b600067ffffffffffffffff82111561074e5761074d6106b8565b5b610757826106a7565b9050602081019050919050565b82818337600083830152505050565b600061078661078184610733565b610718565b9050828152602081018484840111156107a2576107a16106a2565b5b6107ad848285610764565b509392505050565b600082601f8301126107ca576107c961069d565b5b81356107da848260208601610773565b91505092915050565b6000602082840312156107f9576107f86105d2565b5b600082013567ffffffffffffffff811115610817576108166105d7565b5b610823848285016107b5565b91505092915050565b6000819050919050565b61083f8161082c565b82525050565b600060208201905061085a6000830184610836565b92915050565b600081519050919050565b600082825260208201905092915050565b60005b8381101561089a57808201518184015260208101905061087f565b838111156108a9576000848401525b50505050565b60006108ba82610860565b6108c4818561086b565b93506108d481856020860161087c565b6108dd816106a7565b840191505092915050565b6000602082019050818103600083015261090281846108af565b905092915050565b7f4e487b7100000000000000000000000000000000000000000000000000000000600052601160045260246000fd5b600061094482610594565b915061094f83610594565b9250817f7fffffffffffffffffffffffffffffffffffffffffffffffffffffffffffffff0383136000831215161561098a5761098961090a565b5b817f80000000000000000000000000000000000000000000000000000000000000000383126000831216156109c2576109c161090a565b5b828201905092915050565b7f4e487b7100000000000000000000000000000000000000000000000000000000600052603260045260246000fd5b6000610a078261082c565b91507fffffffffffffffffffffffffffffffffffffffffffffffffffffffffffffffff8203610a3957610a3861090a565b5b600182019050919050565b7f4e487b7100000000000000000000000000000000000000000000000000000000600052602260045260246000fd5b60006002820490506001821680610a8b57607f821691505b602082108103610a9e57610a9d610a44565b5b5091905056fea2646970667358221220387101ae25fc47702bdfadaef6cd0ce2dc9fe58ea1266b0f1aca620b666c514264736f6c634300080e0033",
  "immutableReferences": {},
  "source": "pragma solidity >=0.4.0 <0.9.0;\n\ncontract VotingContract {\n\n    // Vars\n    int private Yescount = 0;\n    int private Nocount = 0;\n    int private TotalVote = 0;\n    uint private ind = 1;\n    string private Title;\n\n    \n    // Set voting title\n    function setTitle (string memory newTitle) public  {\n      Title = newTitle;\n    }\n    // get voting title\n    function getTitle() public view returns (string memory) {\n      return Title;\n    }\n\n\n\n    //  Yes counter\n    function incYesCounter() public {\n         Yescount += 1;\n    }\n    //  No counter\n     function incNoCounter() public {\n        Nocount += 1;\n    }\n\n\n    //  Yes Total counter\n    function getTotalYes() public view returns (int) {\n        return Yescount;\n    }\n    //  No Total counter\n    function getTotalNo() public view returns (int) {\n        return Nocount;\n    }\n\n\n    //Sum Total vote\n    function SumTotalVote() public {\n        TotalVote = (Yescount + Nocount );\n    }\n    //return Total vote\n    function GetTotalVote() public view returns (int) {\n        return TotalVote;\n    }\n\n \n    //  Maxumim vote\n    function GetMaxVote() public view returns (int) {\n        if (Yescount > Nocount) {\n         return Yescount;\n        } \n        else {\n         return Nocount;\n        }\n    }\n\n\n    // Users Struct\n    struct UserStruct {\n        uint index;\n    }\n  \n    // Mapping users to addresss\n    mapping(address => UserStruct) private userStructs;\n    address[] private userIndex;\n\n    // New user event\n    event LogNewUser (address indexed userAddress, uint index);\n  \n    // Check if user exist\n    function isUser(address userAddress) public view returns(bool isIndeed) {\n        if (userIndex.length == 0) \n            return false;\n        if (userIndex[userStructs[userAddress].index] == userAddress)\n            return true;\n        else\n            return false;\n    }\n\n    // Insert new users\n    function insertUser( address userAddress) public {\n        if (isUser(userAddress) == false) {\n            userStructs[userAddress].index = ind;\n            ind++;\n            userIndex.push(userAddress); \n        }\n    }\n  \n    // Get users counts\n    function getUserCount() public view returns(uint count) {\n        return userIndex.length;\n    }\n\n}",
  "sourcePath": "/Users/noor/TruffleBox_2/truffle/contracts/vote.sol",
  "compiler": {
    "name": "solc",
    "version": "0.8.14+commit.80d49f37.Emscripten.clang"
  },
  "schemaVersion": "3.4.8",
  "updatedAt": "2022-08-03T19:46:51.103Z",
  "devdoc": {
    "kind": "dev",
    "methods": {},
    "version": 1
  },
  "userdoc": {
    "kind": "user",
    "methods": {},
    "version": 1
  }
}