{
  "contractName": "VotingContract",
  "abi": [
    {
      "anonymous": false,
      "inputs": [
        {
          "indexed": true,
          "internalType": "address",
          "name": "userAddress",
          "type": "address"
        },
        {
          "indexed": false,
          "internalType": "uint256",
          "name": "index",
          "type": "uint256"
        }
      ],
      "name": "LogNewUser",
      "type": "event"
    },
    {
      "inputs": [
        {
          "internalType": "string",
          "name": "newTitle",
          "type": "string"
        }
      ],
      "name": "setTitle",
      "outputs": [],
      "stateMutability": "nonpayable",
      "type": "function"
    },
    {
      "inputs": [],
      "name": "getTitle",
      "outputs": [
        {
          "internalType": "string",
          "name": "",
          "type": "string"
        }
      ],
      "stateMutability": "view",
      "type": "function",
      "constant": true
    },
    {
      "inputs": [
        {
          "internalType": "address",
          "name": "ad",
          "type": "address"
        }
      ],
      "name": "setAddress",
      "outputs": [],
      "stateMutability": "nonpayable",
      "type": "function"
    },
    {
      "inputs": [],
      "name": "incYesCounter",
      "outputs": [],
      "stateMutability": "nonpayable",
      "type": "function"
    },
    {
      "inputs": [],
      "name": "incNoCounter",
      "outputs": [],
      "stateMutability": "nonpayable",
      "type": "function"
    },
    {
      "inputs": [],
      "name": "getTotalYes",
      "outputs": [
        {
          "internalType": "int256",
          "name": "",
          "type": "int256"
        }
      ],
      "stateMutability": "view",
      "type": "function",
      "constant": true
    },
    {
      "inputs": [],
      "name": "getTotalNo",
      "outputs": [
        {
          "internalType": "int256",
          "name": "",
          "type": "int256"
        }
      ],
      "stateMutability": "view",
      "type": "function",
      "constant": true
    },
    {
      "inputs": [],
      "name": "SumTotalVote",
      "outputs": [],
      "stateMutability": "nonpayable",
      "type": "function"
    },
    {
      "inputs": [],
      "name": "GetTotalVote",
      "outputs": [
        {
          "internalType": "int256",
          "name": "",
          "type": "int256"
        }
      ],
      "stateMutability": "view",
      "type": "function",
      "constant": true
    },
    {
      "inputs": [],
      "name": "GetMaxVote",
      "outputs": [
        {
          "internalType": "int256",
          "name": "",
          "type": "int256"
        }
      ],
      "stateMutability": "view",
      "type": "function",
      "constant": true
    },
    {
      "inputs": [
        {
          "internalType": "address",
          "name": "userAddress",
          "type": "address"
        }
      ],
      "name": "isUser",
      "outputs": [
        {
          "internalType": "bool",
          "name": "isIndeed",
          "type": "bool"
        }
      ],
      "stateMutability": "view",
      "type": "function",
      "constant": true
    },
    {
      "inputs": [
        {
          "internalType": "address",
          "name": "userAddress",
          "type": "address"
        }
      ],
      "name": "insertUser",
      "outputs": [],
      "stateMutability": "nonpayable",
      "type": "function"
    },
    {
      "inputs": [],
      "name": "getUserCount",
      "outputs": [
        {
          "internalType": "uint256",
          "name": "count",
          "type": "uint256"
        }
      ],
      "stateMutability": "view",
      "type": "function",
      "constant": true
    }
  ],
  "bytecode": "0x60806040526000805560006001556000600255600160035534801561002357600080fd5b50610b55806100336000396000f3fe608060405234801561001057600080fd5b50600436106100cf5760003560e01c806372910be01161008c578063b5cb15f711610066578063b5cb15f7146101b6578063d94eae22146101d4578063e30081a0146101f0578063ff3c1a8f1461020c576100cf565b806372910be01461015e5780637c4705dc1461017a57806384ad548e14610198576100cf565b8063116e757c146100d457806318714114146100f25780631e18a566146100fc5780634209fff11461011a5780635184d8711461014a57806369b1d0e114610154575b600080fd5b6100dc61022a565b6040516100e99190610628565b60405180910390f35b6100fa610234565b005b61010461024f565b6040516101119190610628565b60405180910390f35b610134600480360381019061012f91906106b5565b610258565b60405161014191906106fd565b60405180910390f35b610152610335565b005b61015c61034d565b005b6101786004803603810190610173919061085e565b610368565b005b610182610382565b60405161018f9190610628565b60405180910390f35b6101a06103a3565b6040516101ad9190610628565b60405180910390f35b6101be6103ad565b6040516101cb91906108c0565b60405180910390f35b6101ee60048036038101906101e991906106b5565b6103ba565b005b61020a600480360381019061020591906106b5565b610496565b005b6102146104da565b6040516102219190610963565b60405180910390f35b6000600254905090565b600160008082825461024691906109b4565b92505081905550565b60008054905090565b6000806007805490500361026f5760009050610330565b8173ffffffffffffffffffffffffffffffffffffffff166007600660008573ffffffffffffffffffffffffffffffffffffffff1673ffffffffffffffffffffffffffffffffffffffff16815260200190815260200160002060000154815481106102dc576102db610a48565b5b9060005260206000200160009054906101000a900473ffffffffffffffffffffffffffffffffffffffff1673ffffffffffffffffffffffffffffffffffffffff160361032b5760019050610330565b600090505b919050565b60015460005461034591906109b4565b600281905550565b600180600082825461035f91906109b4565b92505081905550565b806004908051906020019061037e92919061056c565b5050565b6000600154600054131561039a5760005490506103a0565b60015490505b90565b6000600154905090565b6000600780549050905090565b600015156103c782610258565b15150361049357600354600660008373ffffffffffffffffffffffffffffffffffffffff1673ffffffffffffffffffffffffffffffffffffffff168152602001908152602001600020600001819055506003600081548092919061042a90610a77565b91905055506007819080600181540180825580915050600190039060005260206000200160009091909190916101000a81548173ffffffffffffffffffffffffffffffffffffffff021916908373ffffffffffffffffffffffffffffffffffffffff1602179055505b50565b80600560006101000a81548173ffffffffffffffffffffffffffffffffffffffff021916908373ffffffffffffffffffffffffffffffffffffffff16021790555050565b6060600480546104e990610aee565b80601f016020809104026020016040519081016040528092919081815260200182805461051590610aee565b80156105625780601f1061053757610100808354040283529160200191610562565b820191906000526020600020905b81548152906001019060200180831161054557829003601f168201915b5050505050905090565b82805461057890610aee565b90600052602060002090601f01602090048101928261059a57600085556105e1565b82601f106105b357805160ff19168380011785556105e1565b828001600101855582156105e1579182015b828111156105e05782518255916020019190600101906105c5565b5b5090506105ee91906105f2565b5090565b5b8082111561060b5760008160009055506001016105f3565b5090565b6000819050919050565b6106228161060f565b82525050565b600060208201905061063d6000830184610619565b92915050565b6000604051905090565b600080fd5b600080fd5b600073ffffffffffffffffffffffffffffffffffffffff82169050919050565b600061068282610657565b9050919050565b61069281610677565b811461069d57600080fd5b50565b6000813590506106af81610689565b92915050565b6000602082840312156106cb576106ca61064d565b5b60006106d9848285016106a0565b91505092915050565b60008115159050919050565b6106f7816106e2565b82525050565b600060208201905061071260008301846106ee565b92915050565b600080fd5b600080fd5b6000601f19601f8301169050919050565b7f4e487b7100000000000000000000000000000000000000000000000000000000600052604160045260246000fd5b61076b82610722565b810181811067ffffffffffffffff8211171561078a57610789610733565b5b80604052505050565b600061079d610643565b90506107a98282610762565b919050565b600067ffffffffffffffff8211156107c9576107c8610733565b5b6107d282610722565b9050602081019050919050565b82818337600083830152505050565b60006108016107fc846107ae565b610793565b90508281526020810184848401111561081d5761081c61071d565b5b6108288482856107df565b509392505050565b600082601f83011261084557610844610718565b5b81356108558482602086016107ee565b91505092915050565b6000602082840312156108745761087361064d565b5b600082013567ffffffffffffffff81111561089257610891610652565b5b61089e84828501610830565b91505092915050565b6000819050919050565b6108ba816108a7565b82525050565b60006020820190506108d560008301846108b1565b92915050565b600081519050919050565b600082825260208201905092915050565b60005b838110156109155780820151818401526020810190506108fa565b83811115610924576000848401525b50505050565b6000610935826108db565b61093f81856108e6565b935061094f8185602086016108f7565b61095881610722565b840191505092915050565b6000602082019050818103600083015261097d818461092a565b905092915050565b7f4e487b7100000000000000000000000000000000000000000000000000000000600052601160045260246000fd5b60006109bf8261060f565b91506109ca8361060f565b9250817f7fffffffffffffffffffffffffffffffffffffffffffffffffffffffffffffff03831360008312151615610a0557610a04610985565b5b817f8000000000000000000000000000000000000000000000000000000000000000038312600083121615610a3d57610a3c610985565b5b828201905092915050565b7f4e487b7100000000000000000000000000000000000000000000000000000000600052603260045260246000fd5b6000610a82826108a7565b91507fffffffffffffffffffffffffffffffffffffffffffffffffffffffffffffffff8203610ab457610ab3610985565b5b600182019050919050565b7f4e487b7100000000000000000000000000000000000000000000000000000000600052602260045260246000fd5b60006002820490506001821680610b0657607f821691505b602082108103610b1957610b18610abf565b5b5091905056fea2646970667358221220b05b488fd50c8fc5c251691a00caf30eed18d567b2f96b2722a4092a72e3a22b64736f6c634300080e0033",
  "immutableReferences": {},
  "source": "pragma solidity >=0.4.0 <0.9.0;\n\ncontract VotingContract {\n\n    // Vars\n    int private Yescount = 0;\n    int private Nocount = 0;\n    int private TotalVote = 0;\n    uint private ind = 1;\n    string private Title;\n    address private add;\n\n    \n    // Set voting title\n    function setTitle (string memory newTitle) public  {\n      Title = newTitle;\n    }\n    // get voting title\n    function getTitle() public view returns (string memory) {\n      return Title;\n    }\n\n\n     // Set address tile\n    function setAddress (address ad) public {\n      add = ad;\n    }\n\n\n\n    //  Yes counter\n    function incYesCounter() public {\n         Yescount += 1;\n    }\n    //  No counter\n     function incNoCounter() public {\n        Nocount += 1;\n    }\n\n\n    //  Yes Total counter\n    function getTotalYes() public view returns (int) {\n        return Yescount;\n    }\n    //  No Total counter\n    function getTotalNo() public view returns (int) {\n        return Nocount;\n    }\n\n\n    //Sum Total vote\n    function SumTotalVote() public {\n        TotalVote = (Yescount + Nocount );\n    }\n    //return Total vote\n    function GetTotalVote() public view returns (int) {\n        return TotalVote;\n    }\n\n \n    //  Maxumim vote\n    function GetMaxVote() public view returns (int) {\n        if (Yescount > Nocount) {\n         return Yescount;\n        } \n        else {\n         return Nocount;\n        }\n    }\n\n\n    // Users Struct\n    struct UserStruct {\n        uint index;\n    }\n  \n    // Mapping users to addresss\n    mapping(address => UserStruct) private userStructs;\n    address[] private userIndex;\n\n    // New user event\n    event LogNewUser (address indexed userAddress, uint index);\n  \n    // Check if user exist\n    function isUser(address userAddress) public view returns(bool isIndeed) {\n        if (userIndex.length == 0) \n            return false;\n        if (userIndex[userStructs[userAddress].index] == userAddress)\n            return true;\n        else\n            return false;\n    }\n\n    // Insert new users\n    function insertUser( address userAddress) public {\n        if (isUser(userAddress) == false) {\n            userStructs[userAddress].index = ind;\n            ind++;\n            userIndex.push(userAddress); \n        }\n    }\n  \n    // Get users counts\n    function getUserCount() public view returns(uint count) {\n        return userIndex.length;\n    }\n\n}",
  "sourcePath": "/Users/noor/TruffleBox_2/truffle/contracts/VotingContract.sol",
  "compiler": {
    "name": "solc",
    "version": "0.8.14+commit.80d49f37.Emscripten.clang"
  },
  "schemaVersion": "3.4.8",
  "updatedAt": "2022-08-04T06:35:59.229Z",
  "networkType": "ethereum",
  "devdoc": {
    "kind": "dev",
    "methods": {},
    "version": 1
  },
  "userdoc": {
    "kind": "user",
    "methods": {},
    "version": 1
  }
}